{
  "contractName": "Donations",
  "abi": [
    {
      "constant": false,
      "inputs": [
        {
          "name": "_givenId",
          "type": "uint16"
        }
      ],
      "name": "registerNGO",
      "outputs": [
        {
          "name": "",
          "type": "uint256"
        }
      ],
      "payable": false,
      "stateMutability": "nonpayable",
      "type": "function"
    },
    {
      "constant": false,
      "inputs": [
        {
          "name": "_id",
          "type": "uint256"
        }
      ],
      "name": "removeNGO",
      "outputs": [],
      "payable": false,
      "stateMutability": "nonpayable",
      "type": "function"
    },
    {
      "constant": true,
      "inputs": [
        {
          "name": "_ngoRegId",
          "type": "uint256"
        }
      ],
      "name": "isValid",
      "outputs": [
        {
          "name": "",
          "type": "bool"
        }
      ],
      "payable": false,
      "stateMutability": "view",
      "type": "function"
    },
    {
      "inputs": [],
      "payable": false,
      "stateMutability": "nonpayable",
      "type": "constructor"
    },
    {
      "constant": false,
      "inputs": [
        {
          "name": "_ngoAddress",
          "type": "address"
        },
        {
          "name": "_ngoRegId",
          "type": "uint256"
        },
        {
          "name": "_ngoType",
          "type": "string"
        },
        {
          "name": "_ngoName",
          "type": "string"
        }
      ],
      "name": "insertNGO",
      "outputs": [],
      "payable": false,
      "stateMutability": "nonpayable",
      "type": "function"
    },
    {
      "constant": false,
      "inputs": [
        {
          "name": "_ngoRegId",
          "type": "uint16"
        }
      ],
      "name": "donate",
      "outputs": [],
      "payable": true,
      "stateMutability": "payable",
      "type": "function"
    }
  ],
  "bytecode": "0x60806040526000600260006101000a81548161ffff021916908361ffff16021790555034801561002e57600080fd5b50336000806101000a81548173ffffffffffffffffffffffffffffffffffffffff021916908373ffffffffffffffffffffffffffffffffffffffff160217905550336002806101000a81548173ffffffffffffffffffffffffffffffffffffffff021916908373ffffffffffffffffffffffffffffffffffffffff160217905550610c5c806100be6000396000f30060806040526004361061006d576000357c0100000000000000000000000000000000000000000000000000000000900463ffffffff1680630eb0ad2a1461007257806371b69bec146100b7578063d7987b7b146100e4578063e4d5ac7d146101bd578063f577a500146101e1575b600080fd5b34801561007e57600080fd5b506100a1600480360381019080803561ffff169060200190929190505050610226565b6040518082815260200191505060405180910390f35b3480156100c357600080fd5b506100e2600480360381019080803590602001909291905050506102d9565b005b3480156100f057600080fd5b506101bb600480360381019080803573ffffffffffffffffffffffffffffffffffffffff16906020019092919080359060200190929190803590602001908201803590602001908080601f0160208091040260200160405190810160405280939291908181526020018383808284378201915050505050509192919290803590602001908201803590602001908080601f01602080910402602001604051908101604052809392919081815260200183838082843782019150505050505091929192905050506103db565b005b6101df600480360381019080803561ffff1690602001909291905050506105f9565b005b3480156101ed57600080fd5b5061020c600480360381019080803590602001909291905050506106ce565b604051808215151515815260200191505060405180910390f35b6000336000806101000a81548173ffffffffffffffffffffffffffffffffffffffff021916908373ffffffffffffffffffffffffffffffffffffffff1602179055506001829080600181540180825580915050906001820390600052602060002001600090919261ffff16909190915055506002600081819054906101000a900461ffff168092919060010191906101000a81548161ffff021916908361ffff160217905550508161ffff169050919050565b6000336000806101000a81548173ffffffffffffffffffffffffffffffffffffffff021916908373ffffffffffffffffffffffffffffffffffffffff160217905550600090505b6001805490508110156103d6578160018281548110151561033d57fe5b906000526020600020015414156103c95760018080805490500381548110151561036357fe5b906000526020600020015460018281548110151561037d57fe5b90600052602060002001819055506001808080549050038154811015156103a057fe5b906000526020600020016000905560018054809190600190036103c3919061072d565b506103d7565b8080600101915050610320565b5b5050565b6000806002809054906101000a900473ffffffffffffffffffffffffffffffffffffffff1673ffffffffffffffffffffffffffffffffffffffff163373ffffffffffffffffffffffffffffffffffffffff1614151561043957600080fd5b610441610759565b604051809103906000f08015801561045d573d6000803e3d6000fd5b5091508173ffffffffffffffffffffffffffffffffffffffff1663f577a500866040518263ffffffff167c010000000000000000000000000000000000000000000000000000000002815260040180828152602001915050602060405180830381600087803b1580156104cf57600080fd5b505af11580156104e3573d6000803e3d6000fd5b505050506040513d60208110156104f957600080fd5b8101908080519060200190929190505050905080151561051857600080fd5b6080604051908101604052808481526020018581526020018681526020018773ffffffffffffffffffffffffffffffffffffffff1681525060036000878152602001908152602001600020600082015181600001908051906020019061057f929190610769565b50602082015181600101908051906020019061059c929190610769565b506040820151816002015560608201518160030160006101000a81548173ffffffffffffffffffffffffffffffffffffffff021916908373ffffffffffffffffffffffffffffffffffffffff160217905550905050505050505050565b6000600460008154809291906001019190505550600360008361ffff168152602001908152602001600020905060408051908101604052803373ffffffffffffffffffffffffffffffffffffffff168152602001348152508160040160006004600081548092919060010191905055815260200190815260200160002060008201518160000160006101000a81548173ffffffffffffffffffffffffffffffffffffffff021916908373ffffffffffffffffffffffffffffffffffffffff160217905550602082015181600101559050505050565b600080600090505b6001805490508161ffff161015610722578260018261ffff168154811015156106fb57fe5b906000526020600020015414156107155760019150610727565b80806001019150506106d6565b600091505b50919050565b8154818355818111156107545781836000526020600020918201910161075391906107e9565b5b505050565b6040516104228061080f83390190565b828054600181600116156101000203166002900490600052602060002090601f016020900481019282601f106107aa57805160ff19168380011785556107d8565b828001600101855582156107d8579182015b828111156107d75782518255916020019190600101906107bc565b5b5090506107e591906107e9565b5090565b61080b91905b808211156108075760008160009055506001016107ef565b5090565b90560060806040526000600260006101000a81548161ffff021916908361ffff16021790555034801561002e57600080fd5b50336000806101000a81548173ffffffffffffffffffffffffffffffffffffffff021916908373ffffffffffffffffffffffffffffffffffffffff1602179055506103a48061007e6000396000f300608060405260043610610057576000357c0100000000000000000000000000000000000000000000000000000000900463ffffffff1680630eb0ad2a1461005c57806371b69bec146100a1578063f577a500146100ce575b600080fd5b34801561006857600080fd5b5061008b600480360381019080803561ffff169060200190929190505050610113565b6040518082815260200191505060405180910390f35b3480156100ad57600080fd5b506100cc600480360381019080803590602001909291905050506101c6565b005b3480156100da57600080fd5b506100f9600480360381019080803590602001909291905050506102c8565b604051808215151515815260200191505060405180910390f35b6000336000806101000a81548173ffffffffffffffffffffffffffffffffffffffff021916908373ffffffffffffffffffffffffffffffffffffffff1602179055506001829080600181540180825580915050906001820390600052602060002001600090919261ffff16909190915055506002600081819054906101000a900461ffff168092919060010191906101000a81548161ffff021916908361ffff160217905550508161ffff169050919050565b6000336000806101000a81548173ffffffffffffffffffffffffffffffffffffffff021916908373ffffffffffffffffffffffffffffffffffffffff160217905550600090505b6001805490508110156102c3578160018281548110151561022a57fe5b906000526020600020015414156102b65760018080805490500381548110151561025057fe5b906000526020600020015460018281548110151561026a57fe5b906000526020600020018190555060018080805490500381548110151561028d57fe5b906000526020600020016000905560018054809190600190036102b09190610327565b506102c4565b808060010191505061020d565b5b5050565b600080600090505b6001805490508161ffff16101561031c578260018261ffff168154811015156102f557fe5b9060005260206000200154141561030f5760019150610321565b80806001019150506102d0565b600091505b50919050565b81548183558181111561034e5781836000526020600020918201910161034d9190610353565b5b505050565b61037591905b80821115610371576000816000905550600101610359565b5090565b905600a165627a7a723058202610ff52859a814e8bc6d03caccb4d5aa342a088e2dd69e932c2da869d57861f0029a165627a7a72305820b389585250637d3dc4dd3fd47419bbdced5ed23df1d2b771b8b30e2c72f9ba260029",
  "source": "pragma solidity ^0.4.23;\r\n\r\nimport \"./NGOdata.sol\";\r\n\r\ncontract Donations is NGOinfo{\r\n\r\n    address owner;\r\n\r\n    constructor() public {\r\n        owner = msg.sender;\r\n    }\r\n\r\n    modifier permit{\r\n        require(msg.sender==owner);\r\n        _;\r\n    }\r\n\r\n    struct NGO{\r\n        string ngoName;\r\n        string ngoType;\r\n        uint ngoRegId;\r\n        address ngoAddress;\r\n        mapping(uint=>Donor) donors;\r\n    }\r\n\r\n    struct Donor{\r\n        address donorAddress;\r\n        uint donationAmount;\r\n    }\r\n\r\n    mapping(uint=>NGO) ngos;\r\n    \r\n\r\n    uint donorCount;\r\n\r\n    function insertNGO(address _ngoAddress,uint _ngoRegId,string _ngoType,string _ngoName) permit public{\r\n\r\n        NGOinfo data = new NGOinfo();\r\n        bool validity = data.isValid(_ngoRegId);\r\n        require(validity);\r\n        ngos[_ngoRegId] = NGO(_ngoName,_ngoType,_ngoRegId,_ngoAddress);\r\n\r\n    }\r\n\r\n    function donate(uint16 _ngoRegId)public payable{\r\n       \r\n        donorCount++;\r\n        NGO storage ngo = ngos[_ngoRegId];\r\n        ngo.donors[donorCount++] = Donor({donorAddress:msg.sender,donationAmount:msg.value});        \r\n    }\r\n\r\n}\r\n\r\n\r\n",
  "sourcePath": "C:\\Users\\him\\Desktop\\DonationDapp\\contracts\\Donations.sol",
  "compiler": {
    "name": "solc",
    "version": "0.4.24+commit.e67f0147.Emscripten.clang"
  },
  "schemaVersion": "2.0.1",
  "updatedAt": "2018-07-03T15:33:33.256Z"
}