{
  "contractName": "NGOinfo",
  "abi": [
    {
      "inputs": [],
      "payable": false,
      "stateMutability": "nonpayable",
      "type": "constructor"
    },
    {
      "constant": false,
      "inputs": [
        {
          "name": "_givenId",
          "type": "uint16"
        }
      ],
      "name": "registerNGO",
      "outputs": [
        {
          "name": "",
          "type": "uint256"
        }
      ],
      "payable": false,
      "stateMutability": "nonpayable",
      "type": "function"
    },
    {
      "constant": false,
      "inputs": [
        {
          "name": "_id",
          "type": "uint256"
        }
      ],
      "name": "removeNGO",
      "outputs": [],
      "payable": false,
      "stateMutability": "nonpayable",
      "type": "function"
    },
    {
      "constant": true,
      "inputs": [
        {
          "name": "_ngoRegId",
          "type": "uint256"
        }
      ],
      "name": "isValid",
      "outputs": [
        {
          "name": "",
          "type": "bool"
        }
      ],
      "payable": false,
      "stateMutability": "view",
      "type": "function"
    }
  ],
  "bytecode": "0x60806040526000600260006101000a81548161ffff021916908361ffff16021790555034801561002e57600080fd5b50336000806101000a81548173ffffffffffffffffffffffffffffffffffffffff021916908373ffffffffffffffffffffffffffffffffffffffff1602179055506103a48061007e6000396000f300608060405260043610610057576000357c0100000000000000000000000000000000000000000000000000000000900463ffffffff1680630eb0ad2a1461005c57806371b69bec146100a1578063f577a500146100ce575b600080fd5b34801561006857600080fd5b5061008b600480360381019080803561ffff169060200190929190505050610113565b6040518082815260200191505060405180910390f35b3480156100ad57600080fd5b506100cc600480360381019080803590602001909291905050506101c6565b005b3480156100da57600080fd5b506100f9600480360381019080803590602001909291905050506102c8565b604051808215151515815260200191505060405180910390f35b6000336000806101000a81548173ffffffffffffffffffffffffffffffffffffffff021916908373ffffffffffffffffffffffffffffffffffffffff1602179055506001829080600181540180825580915050906001820390600052602060002001600090919261ffff16909190915055506002600081819054906101000a900461ffff168092919060010191906101000a81548161ffff021916908361ffff160217905550508161ffff169050919050565b6000336000806101000a81548173ffffffffffffffffffffffffffffffffffffffff021916908373ffffffffffffffffffffffffffffffffffffffff160217905550600090505b6001805490508110156102c3578160018281548110151561022a57fe5b906000526020600020015414156102b65760018080805490500381548110151561025057fe5b906000526020600020015460018281548110151561026a57fe5b906000526020600020018190555060018080805490500381548110151561028d57fe5b906000526020600020016000905560018054809190600190036102b09190610327565b506102c4565b808060010191505061020d565b5b5050565b600080600090505b6001805490508161ffff16101561031c578260018261ffff168154811015156102f557fe5b9060005260206000200154141561030f5760019150610321565b80806001019150506102d0565b600091505b50919050565b81548183558181111561034e5781836000526020600020918201910161034d9190610353565b5b505050565b61037591905b80821115610371576000816000905550600101610359565b5090565b905600a165627a7a723058202610ff52859a814e8bc6d03caccb4d5aa342a088e2dd69e932c2da869d57861f0029",
  "source": "pragma solidity ^0.4.23;\r\n\r\ncontract NGOinfo{\r\n\r\n    address owner;\r\n    uint[] ngoregId;\r\n\r\n    constructor() public {\r\n        owner = msg.sender;\r\n    }\r\n\r\n    modifier officialOnly(){\r\n        owner = msg.sender;\r\n        _;\r\n    }\r\n\r\n    uint16 Id = 0;\r\n\r\n    function registerNGO(uint16 _givenId) officialOnly public returns(uint){\r\n\r\n        ngoregId.push(_givenId);\r\n        Id++;\r\n        return _givenId;\r\n    }\r\n\r\n    function removeNGO(uint _id) officialOnly public {\r\n        uint i;\r\n        for(i = 0; i < ngoregId.length ; i++){\r\n            if(ngoregId[i] == _id){\r\n                ngoregId[i] = ngoregId[ngoregId.length-1];\r\n                delete ngoregId[ngoregId.length-1];\r\n                ngoregId.length--;\r\n                return;\r\n            }\r\n        }\r\n    }\r\n\r\n    function isValid(uint _ngoRegId) public view returns(bool){\r\n\r\n        uint16 x = 0;\r\n        while(x < ngoregId.length){\r\n            if(ngoregId[x] == _ngoRegId){\r\n                return true;\r\n            }\r\n            x++;\r\n        }\r\n        return false;\r\n    }\r\n\r\n}",
  "sourcePath": "C:\\Users\\him\\Desktop\\DonationDapp\\contracts\\NGOdata.sol",
  "compiler": {
    "name": "solc",
    "version": "0.4.24+commit.e67f0147.Emscripten.clang"
  },
  "schemaVersion": "2.0.1",
  "updatedAt": "2018-07-03T15:33:33.258Z"
}